:020000040000FA
:100000000C946B000C9493000C9493000C9493004C
:100010000C9493000C9493000C9493000C94930014
:100020000C9493000C9493000C9493000C94930004
:100030000C9493000C9493000C9493000C949300F4
:100040000C9496140C9493000C9464140C943E1429
:100050000C9493000C9493000C9493000C949300D4
:100060000C9493000C9493007C3C3E5E2B3D3F2F00
:100070005B5D3B2C2A225C0000000000250028006C
:100080002B000000000023002600290000000008CB
:10009000000201000003040700000000000000004F
:1000A00000000000240027002A000102040810209C
:1000B00040800102040810200102040810200404FA
:1000C0000404040404040202020202020303030300
:1000D0000303E014341F11241FBECFEFD8E0DEBFAE
:1000E000CDBF13E0A0E0B1E0E0E8F6E402C0059087
:1000F0000D92AC3CB107D9F727E0ACECB3E001C0FE
:100100001D92A434B207E1F710E0CAE6D0E004C0C3
:100110002197FE010E941F21C936D107C9F70E940D
:100120005E150C9433230C940000CF93DF93FC01F5
:10013000828193819093100780930F07848195812A
:10014000A681B7818093110790931207A09313079C
:10015000B093140780859185A285B3858093150798
:1001600090931607A0931707B0931807DF011C960A
:10017000CF014996C9E1D7E02D912993A817B90776
:10018000D9F7818D928D90932707809326078DE074
:1001900097E0DF91CF9108950895DB0114964D917A
:1001A0005C9115976D917C91DC01ED91FC91028041
:1001B000F381E02D0994AF92BF92CF92DF92EF923C
:1001C000FF920F931F93CF93DF936C017B018B0101
:1001D000040F151FEB015E01AE18BF08C017D10751
:1001E00059F06991D601ED91FC910190F081E02DDB
:1001F000C6010995892B79F7C501DF91CF911F9130
:100200000F91FF90EF90DF90CF90BF90AF90089547
:10021000FC01538D448D252F30E0842F90E0821B0C
:10022000930B541710F0CF96089501970895FC0191
:10023000918D828D981761F0A28DAE0FBF2FB11DE9
:100240005D968C91928D9F5F9F73928F90E0089541
:100250008FEF9FEF0895FC01918D828D981731F0FB
:10026000828DE80FF11D858D90E008958FEF9FEF4F
:100270000895FC01918D228D892F90E0805C9F4F25
:10028000821B91098F73992708958FE196E00E9450
:10029000390121E0892B09F420E0822F089580E0C4
:1002A00090E0892B29F00E94450181110C940000F7
:1002B0000895FC01A48DA80FB92FB11DA35ABF4FFB
:1002C0002C91848D90E001968F739927848FA68955
:1002D000B7892C93A089B1898C91837080648C93A9
:1002E000938D848D981306C00288F389E02D808158
:1002F0008F7D80830895EF92FF920F931F93CF938A
:10030000DF93EC0181E0888F9B8D8C8D98131AC050
:10031000E889F989808185FF15C09FB7F894EE8937
:10032000FF896083E889F989808183708064808394
:100330009FBF81E090E0DF91CF911F910F91FF90DF
:10034000EF900895F62E0B8D10E00F5F1F4F0F7387
:100350001127E02E8C8D8E110CC00FB607FCFACF42
:10036000E889F989808185FFF5CFCE010E94590186
:10037000F1CFEB8DEC0FFD2FF11DE35AFF4FF08213
:100380009FB7F8940B8FEA89FB8980818062CFCF79
:10039000CF93DF93EC01888D8823B9F0AA89BB89BC
:1003A000E889F9898C9185FD03C0808186FD0DC0A7
:1003B0000FB607FCF7CF8C9185FFF2CF808185FFC8
:1003C000EDCFCE010E945901E9CFDF91CF91089581
:1003D000833081F028F4813099F08230A9F00895BB
:1003E0008730A9F08830C9F08430B1F48091800062
:1003F0008F7D03C0809180008F7780938000089567
:1004000084B58F7784BD089584B58F7DFBCF8091AF
:10041000B0008F778093B00008958091B0008F7DF9
:10042000F9CFCF93DF93282F30E0F901E457FF4F46
:100430008491F901E655FF4FD491F901E254FF4F41
:10044000C491CC23A1F081110E94E801EC2FF0E0CF
:10045000EE0FFF1FEE57FF4FA591B491EC91ED23E6
:1004600081E090E009F480E0DF91CF91089580E091
:1004700090E0FACF1F93CF93DF93282F30E0F9015C
:10048000E457FF4F8491F901E655FF4FD491F901EC
:10049000E254FF4FC491CC23A9F0162F81110E9482
:1004A000E801EC2FF0E0EE0FFF1FE858FF4FA59199
:1004B000B4918FB7F894EC91111108C0D095DE2358
:1004C000DC938FBFDF91CF911F910895DE2BF8CF82
:1004D000CF93DF9390E0FC01E655FF4F24918254C7
:1004E0009F4FFC0184918823D1F090E0880F991FE1
:1004F000FC01E056FF4FA591B491FC01E858FF4F75
:10050000C591D49161110EC09FB7F8948C91E22FE0
:10051000E0958E238C932881E223E8839FBFDF91AF
:10052000CF9108958FB7F894EC91E22BEC938FBFA5
:10053000F6CF3FB7F8948091D8039091D903A0915A
:10054000DA03B091DB0326B5A89B05C02F3F19F055
:100550000196A11DB11D3FBFBA2FA92F982F882743
:10056000BC01CD01620F711D811D911D42E0660F1E
:10057000771F881F991F4A95D1F708958F929F92F0
:10058000AF92BF92CF92DF92EF92FF924B015C014C
:100590000E9499026B017C010E9499026C197D09ED
:1005A0008E099F09683E734081059105A8F321E0FB
:1005B000821A9108A108B10888EEC80E83E0D81EFF
:1005C000E11CF11C81149104A104B10429F7FF90EE
:1005D000EF90DF90CF90BF90AF909F908F90089555
:1005E0002FB7F8946091D4037091D5038091D6030E
:1005F0009091D7032FBF08958FB7F8948091CD03C2
:100600008FBF089561E0FC0184810E943A028091CD
:10061000CC0381111092CC0308958EBD00000DB45F
:1006200007FEFDCF8EB508958FEF0C940D030F9349
:100630001F93CF93DF93EC010E94F0028B010E9485
:1006400014038F3F69F00E94F002601B710B6C175E
:100650007D07A8F380E0DF91CF911F910F9108955E
:1006600081E0F9CF8CBD9DBD0895CF93DF93EC0160
:100670008091CC03811109C081E08093CC038091EB
:10068000BC069091BD060E94320360E08C81DF9130
:10069000CF910C943A028F929F92AF92BF92FF92A9
:1006A0000F931F93CF93DF93EC01F62E49015A016C
:1006B0008E81882389F08F8198859C012F5F3F4F21
:1006C00038872F838230924018F40E941403F3CFAE
:1006D000CE010E9402031E82CE010E9435038CE2ED
:1006E00091E00E9417038F2D80640E940D0308E1A2
:1006F00010E0D501C401002E04C0B695A7959795CA
:1007000087950A94D2F70E940D0308501109083FFB
:100710008FEF180771F785E9FF2021F028E087E8BF
:10072000F2128FEF0E940D0310E00E9414038A87DB
:1007300087FF04C01F3F11F01F5FF7CFDF91CF91FC
:100740001F910F91FF90BF90AF909F908F90089551
:10075000AF92BF92CF92DF92EF92FF920F931F93CF
:10076000CF93DF93EC016901C801820F931F8130A1
:10077000924050F58E81882379F088819981AA81F1
:10078000BB8184179507A607B70731F48F81988539
:10079000C816D90608F042C0488359836A837B8310
:1007A0008B85833039F089E0440F551F661F771F12
:1007B0008A95D1F79A01AB0161E1CE010E944B030A
:1007C000882389F083E08D83CE010E94020380E0BC
:1007D000DF91CF911F910F91FF90EF90DF90CF901D
:1007E000BF90AF9008950E94F0025B010E94140335
:1007F0008A878F3F69F40E94F0026A197B096D3283
:100800007140A0F38FE08D83CE010E940203DCCF04
:100810008E3F89F418861F8281E08E838F819885B0
:100820008C159D0550F40E9414038F8198850196C4
:1008300098878F83F3CF8DE0E6CF6701E00EF11E3E
:100840000E941403F60181936F01EE15FF05C1F7B5
:100850008F819885080F191F18870F838985882332
:1008600019F001151240A0F08E81882389F08F8144
:1008700098859C012F5F3F4F38872F8382309240AD
:1008800018F40E941403F3CFCE010E9402031E82CB
:1008900081E09ECFCF92DF92EF92FF920F93CF93A2
:1008A000DF93EC01690182E1411551056105710594
:1008B00099F08B85833039F089E0440F551F661F0E
:1008C000771F8A95D1F79A01AB0168E1CE010E94AA
:1008D0004B03882319F084E08D832DC08EEF0E9496
:1008E0000D0376018EEFD81AF70181917F010E94E6
:1008F0000D03EC14FD04C1F78FEF0E940D038FEF81
:100900000E940D030E9414038A878F71853071F451
:10091000011116C0CE010E94020381E0DF91CF9148
:100920000F91FF90EF90DF90CF90089581E18D833C
:10093000CE010E940203CE010E94020380E0EECFAE
:1009400088E592E00E941703811102C085E1C4CFBF
:1009500020E030E0A9016DE0CE010E944B03882326
:1009600011F084E1B9CF0E9414038111FACFD2CFE4
:100970000F934091CF035091D0036091D1037091B8
:10098000D203411551056105710599F0082F2FE13A
:1009900034E080911D0490911E040E944A04882333
:1009A00049F01092CF031092D0031092D10310920D
:1009B000D20381E00F9108950F93CF93C82F8091B8
:1009C000CE03811105C0C1E08C2FCF910F91089506
:1009D0004091000150910101609102017091030169
:1009E0000C2F2FE134E080911D0490911E040E9491
:1009F0004A04811102C0C0E0E7CFCC2321F381E09B
:100A00000E94B8048823B9F31092CE03DDCF8F92F1
:100A10009F92AF92BF92EF92FF920F931F93CF934B
:100A20004B015C01C42F8091000190910101A091C4
:100A30000201B091030188159905AA05BB0551F182
:100A400081E00E94DC0481110BC080E0CF911F91F6
:100A50000F91FF90EF90BF90AF909F908F9008956F
:100A60008FE1E82E84E0F82E00E012E030E020E094
:100A7000B501A40180911D0490911E040E94A80359
:100A8000882319F38092000190920101A092020143
:100A9000B09203014091CE034C2B4093CE0381E0F2
:100AA000D5CFCF93DF93EC016E857F8588899989B7
:100AB00041E00E940705882351F08A8920E2829F45
:100AC000C0011124815E9B4FDF91CF91089590E08A
:100AD00080E0FACF8F929F92AF92BF92CF92DF9237
:100AE000EF92FF92CF932EEB36E030931E042093CB
:100AF0001D04882309F46DC040E060E070E0CB0184
:100B00000E94070581110BC080E0CF91FF90EF900C
:100B1000DF90CF90BF90AF909F908F90089580917D
:100B2000DD058F7789F78091E9059091EA05A0911D
:100B3000EB05B091EC0584369105A105B10520F3D4
:100B4000C090E505D090E605E090E705F090E80557
:100B5000C114D104E104F104B9F240E0C701B601C7
:100B60000E940705882381F280912A0490912B042A
:100B70008115924049F6A0912F04AA2329F2609191
:100B80002D0470912E046115710509F4BDCF2091DB
:100B90002C04222309F4B8CFA093DC062093CE06C0
:100BA00090E080E030E0E1E0F0E0C82FAF01082EF7
:100BB00002C0440F551F0A94E2F72417350769F065
:100BC00041E0480F01968930910579F74093D706A7
:100BD0009BCFC12CD12C7601C0CF8093D70620911A
:100BE00035043091360450E040E02115310541F4E0
:100BF00020914304309144044091450450914604AF
:100C00002093CF063093D0064093D1065093D2065E
:100C100046015701860E971EA11CB11C8092DD066D
:100C20009092DE06A092DF06B092E006E0913004DA
:100C3000F0913104F093E306E093E206B0E00E9405
:100C40007C20DC01CB01880D991DAA1DBB1D809362
:100C5000E4069093E506A093E606B093E70625E048
:100C6000EE0FFF1F2A95E1F7E150FE4FEF2FFF2710
:100C7000E6958E0F9F1FA11DB11D8093D8069093FE
:100C8000D906A093DA06B093DB06809032049090E8
:100C90003304B12CA12C8114910441F480903F04C1
:100CA00090904004A0904104B0904204C81AD90A20
:100CB000EA0AFB0AC80CD91CEA1CFB1C04C0F69407
:100CC000E794D794C794CA95D2F7C092D306D0922E
:100CD000D406E092D506F092D60685EFC8168FE0CE
:100CE000D806E104F10428F48CE08093E10681E069
:100CF0000CCF80E125EFC2162FEFD206E104F104FC
:100D0000A0F380914B0490914C04A0914D04B091BC
:100D10004E048093E4069093E506A093E606B09314
:100D2000E70680E2E2CF4F925F926F927F928F92BE
:100D30009F92AF92BF92CF92DF92EF92FF920F936A
:100D40001F93CF93DF93EC0142305105610571058C
:100D500090F480E0DF91CF911F910F91FF90EF9081
:100D6000DF90CF90BF90AF909F908F907F906F90CB
:100D70005F904F90089589859A85AB85BC850196D3
:100D8000A11DB11D84179507A607B70710F3CB88DF
:100D9000DC88ED88FE888F89803109F042C0BB274E
:100DA000A72F962F852F480159012A013B01C80E14
:100DB000D91EEA1EFB1E8091000190910101A091B5
:100DC0000201B0910301C816D906EA06FB0699F59F
:100DD0008F898031C1F5B301A20155276627772796
:100DE000440F551F415E5B4FFA01918280828091D2
:100DF000CE0381608093CE038A89823080F08D811A
:100E00009E81AF81B8858C0D9D1DAE1DBF1D809349
:100E1000CF039093D003A093D103B093D20381E08A
:100E200099CFDB01CA01E7E0B695A795979587951D
:100E3000EA95D1F7B8CF40E0C701B6010E94070597
:100E40008111C6CF86CFB301A2014F775527662700
:100E50007727440F551F440F551F415E5B4FFA0122
:100E600080829182A282B382C2CF8F929F92AF92F0
:100E7000BF92CF92DF92EF92FF920F931F93CF9387
:100E8000DF93FC0181859285A385B4850196A11D20
:100E9000B11D84179507A607B70770F480E0DF91AE
:100EA000CF911F910F91FF90EF90DF90CF90BF9067
:100EB000AF909F908F90089583889488A588B68876
:100EC0008789803189F5BB27A72F962F852FE901C8
:100ED0006A017B018F01BC01CD01680D791D8A1D5E
:100EE0009B1D8090000190900101A0900201B090A4
:100EF000030186169706A806B90601F5F801878949
:100F0000803111F5DD24EE24FF24F601EE0FFF1FE2
:100F1000E15EFB4F80819181B0E0A0E088839983FE
:100F2000AA83BB8381E0BBCFDB01CA01C7E0B695D2
:100F3000A79597958795CA95D1F7C9CF40E00E94AC
:100F400007058111DBCFAACFE894C7F8DD24EE2492
:100F5000FF24F601EE0FFF1FEE0FFF1FE15EFB4FB8
:100F600080819181A281B381BF70D8CF4F925F926F
:100F70006F927F92AF92BF92CF92DF92EF92FF92E9
:100F80000F931F93CF93DF9300D000D0CDB7DEB780
:100F90008C0149835A836B837C835901C12CD12CEA
:100FA0007601412C82E0582E612C712C49815A81A6
:100FB0006B817C819E012F5F3F4FC8010E943507E6
:100FC000882339F1F8018585A301920104C0220F1D
:100FD000331F441F551F8A95D2F7DA01C901C80E85
:100FE000D91EEA1EFB1E49815A816B817C8187894B
:100FF000803111F188EF9FEFAFEFBFE0481759073D
:101000006A077B0798F2F501C082D182E282F382FF
:1010100081E00F900F900F900F90DF91CF911F9173
:101020000F91FF90EF90DF90CF90BF90AF907F90A7
:101030006F905F904F90089588EF9FEFA0E0B0E031
:10104000DDCFCF93DF93FC012581222321F080E0C7
:10105000DF91CF910895EC018091E106803159F53F
:1010600082E08583178A108E118E128E8091E2069F
:101070009091E306B0E0A0E025E0880F991FAA1F39
:10108000BB1F2A95D1F7838B948BA58BB68B8AECEB
:1010900096E09C8F8B8F81E08C831E821F82188646
:1010A00019861A861B861C861D861E861F86188A30
:1010B000198A1A8ACDCF803251F683E08583409118
:1010C000E4065091E5066091E6067091E706478BCD
:1010D000508F618F728F9F012D5E3F4F8AEC96E09B
:1010E0000E94B6078111D3CFB2CF8F929F92AF9259
:1010F000BF92CF92DF92EF92FF920F931F93CF9305
:10110000DF93EC018D8181110EC080E0DF91CF91E2
:101110001F910F91FF90EF90DF90CF90BF90AF9015
:101120009F908F9008950B891C892D893E89041703
:1011300015072607370748F34A015B01823031F46F
:101140008A869B86AC86BD8681E0E0CF81149104BF
:10115000A104B10449F41E821F82188619861A86DA
:101160001B861C861D86F0CF0A851B852C853D8538
:10117000EB8DFC8D858590E00996B901A801415061
:10118000510961097109082E04C076956795579534
:1011900047950A94D2F775016401E1E0CE1AD108AF
:1011A000E108F10804C0F694E794D794C7948A95AF
:1011B000D2F7C416D506E606F70620F0012B022B5F
:1011C000032B11F58F89988DA98DBA8D8E839F83FE
:1011D000A887B9878E010A5F1F4FC114D104E104AB
:1011E000F10409F4ADCF4E815F816885798598015E
:1011F0008B8D9C8D0E94350791E0C91AD108E108BA
:10120000F1088111EACF81CFC41AD50AE60AF70A9C
:10121000E1CF3F924F925F926F927F928F929F9217
:10122000AF92BF92CF92DF92EF92FF920F931F93F4
:10123000CF93DF93CDB7DEB72C970FB6F894DEBF10
:101240000FBECDBF5C01DC015B968D909C905C97DE
:1012500016964D905D906D907C90199741145104B5
:101260006104710409F468C0BFEF4B1A5B0A6B0A92
:101270007B0A312CF40181859285A385B4859C017C
:10128000AD012F5F3F4F4F4F5F4F29873A874B8705
:101290005C87730162011D821E821F821886F40121
:1012A00081859285A385B4852D813E814F815885A6
:1012B000281739074A075B0708F056C089859A85C1
:1012C000AB85BC858C159D05AE05BF0550F482E04D
:1012D000C82ED12CE12CF12C92E0492E512C612CFE
:1012E000712C9E012F5F3F4FB701A601C4010E94E0
:1012F00035078823C9F189819A81AB81BC81892B0B
:101300008A2B8B2B09F1260137019FEF491A590AC5
:10131000690A790A2D813E814F8158852F5F3F4FA1
:101320004F4F5F4F2D833E834F8358873FEFC31A44
:10133000D30AE30AF30AB3CFF401408051806280FC
:1013400073803324339496CFC414D504E604F70491
:1013500009F70FEF1FEF2FEF3FE0B701A601C40120
:101360000E949306811119C080E02C960FB6F89464
:10137000DEBF0FBECDBFDF91CF911F910F91FF90C8
:10138000EF90DF90CF90BF90AF909F908F907F9025
:101390006F905F904F903F900895D50116964D91B4
:1013A0005D916D917C91199741155105610571050C
:1013B00039F097018601C4010E9493068823A1F2A7
:1013C000D5011696CD92DD92ED92FC9219973320BD
:1013D00051F0D701C6010196A11DB11DF401808312
:1013E0009183A283B383F5018789908DA18DB28DFE
:1013F000892B8A2B8B2B39F48481C78AD08EE18E7E
:10140000F28E80688483F50184818062848381E028
:10141000ACCF1F93CF93DF93FC012581222371F181
:10142000162FEC01848187FF1EC0CF010E94510559
:10143000FC01892B19F18D81823040F48B899C89C4
:10144000AD89BE89848F958FA68FB78F8F89988D30
:10145000938F828F8F89988DA98DBA8DB58BA48B30
:101460008C818F778C83111103C08C818F7E8C834C
:10147000812FDF91CF911F910C94DC0480E0DF91EC
:10148000CF911F910895FF920F931F93CF93DF93F6
:10149000EC018D81813041F090E080E0DF91CF91CF
:1014A0001F910F91FF9008958C8181FFF5CF82FDF0
:1014B0001BC000911D0410911E04C8010E94350339
:1014C0000E941403F82EC8010E9402038FEFF81245
:1014D000E3CF8C8185FF1BC060E0CE010E94090A2A
:1014E0008C818F7D8C83D8CF4B895C896D897E8977
:1014F0008A859B85AC85BD8584179507A607B707A8
:10150000C1F2CE010E9475088111D3CFC5CF4091A1
:10151000CF035091D0036091D1037091D203452B3A
:10152000462B472B21F080E00E94B804B5CF8061A4
:101530008C832A853B85317080E092E0821B930B7F
:10154000ADCFCF93DF93EC0161E00E94090A8823BD
:1015500011F01D8281E0DF91CF9108952F923F928B
:101560004F925F926F927F928F929F92AF92BF92B3
:10157000CF92DF92EF92FF920F931F93CF93DF935F
:1015800000D000D01F92CDB7DEB77C015B01342EB6
:101590005D83DC0115968C911597813009F0CEC0E2
:1015A00014962C9021FECAC022FCB4C0C32CDD804E
:1015B00022947FE027222094B22DB1702B2ED701E8
:1015C0001A964D915D916D917C911D97C114D10436
:1015D00009F428C15B968D919C915C97FC01748005
:1015E0007A948A019B0169E03695279517950795AE
:1015F0006A95D1F770228A011170711020C001150F
:101600001105E9F416964D915D916D917C911997B4
:10161000411551056105710509F099C057968D91E5
:101620009D910D90BC91A02D0097A105B10509F0E9
:10163000B0C0C7010E940909882309F47FC080E077
:1016400092E0801B910B46018C159D0508F44C011E
:10165000D7015B964D915C915C9716968D919D910B
:101660000D90BC91A02D0297A109B109FA01258521
:1016700004C0880F991FAA1FBB1F2A95D2F7468561
:10168000578560897189840F951FA61FB71F9C011C
:10169000AD01270D311D411D511D29013A01811454
:1016A00032E0930609F07BC0809100019091010126
:1016B000A0910201B091030184159505A605B70517
:1016C00059F48FEF9FEFDC018093000190930101AB
:1016D000A0930201B0930301022D9501B301A20171
:1016E00080911D0490911E040E944A04882331F1C8
:1016F0009EEFB91AC818D908F70182859385A48589
:10170000B585880D991DA11DB11D82879387A4877A
:10171000B58755CFF70143895489658976898285D4
:101720009385A485B585481759076A077B0709F48F
:101730003DCFC7010E947508811138CF81E090E04C
:10174000D70113969C938E93129780E007C09E0159
:101750002F5F3F4F0E943507811102C090E079C092
:1017600089819A81AB81BC81F701238D348DF90188
:10177000278948EF5FEF60E070E0203121F048EF0B
:101780005FEF6FEF7FE084179507A607B70708F0B4
:1017900050CFF70186839783A087B18750CF01157B
:1017A000110599F5D7011A964D915D916D917C9136
:1017B0001D9753968D919D910D90BC91A02D48172A
:1017C00059076A077B0708F181E00E94DC0488233F
:1017D00009F4B4CF409200015092010160920201DD
:1017E000709203018091CE0381608093CE03C80183
:1017F000815E9B4FD5019C01280D391DFC012E17E0
:101800003F0759F04D914193FACF41E0C301B20136
:101810000E9407058111EBCF91CF281B390BA20E37
:10182000B31E68CFF70183899489A589B689841787
:101830009507A607B70738F48481438B548B658BD3
:10184000768B80688483F701848183FD1AC0832DA1
:101850009D810F900F900F900F900F90DF91CF917F
:101860001F910F91FF90EF90DF90CF90BF90AF90BE
:101870009F908F907F906F905F904F903F902F90B0
:10188000089561E0C7010E94090A882309F456CF30
:10189000DECFCF93DF931F92CDB7DEB7698341E0F0
:1018A00050E0BE016F5F7F4F0E94AE0A0F90DF9144
:1018B000CF910895FC01DB0112968D919C911397B5
:1018C0009383828384E291E09183808314968C9148
:1018D0001497848315968C911597858316964D9150
:1018E0005D916D917C9119974683578360877187CD
:1018F0001A964D915D916D917C911D97428753870A
:10190000648775871E964D915D916D917C9151977D
:1019100046875787608B718B52968C915297828B3A
:1019200053964D915D916D917C915697438B548B5D
:10193000658B768B57964D915D916D917C915A9701
:10194000478B508F618F728F5B968D919C91948F96
:10195000838F0895FC01818D928D009719F061E0CD
:101960000C94090A0895DC015996ED91FC91309789
:10197000B9F083899489A589B689428553856485A0
:101980007585841B950BA60BB70B811520E8920774
:10199000A105B10538F08FEF9FE7A0E0B0E0089512
:1019A00090E080E00895DC0159968D919C9100971C
:1019B00039F0DC01ED91FC910480F581E02D099472
:1019C00090E080E00895CF93DF93EC01E98DFA8DEC
:1019D000309749F481E090E09B838A8390E080E037
:1019E000DF91CF91089513821282898D9A8D0E9482
:1019F000AE0AE98DFA8D22813381232B59F7F0CF7E
:101A0000CF93DF931F92CDB7DEB76983DC01ED91F1
:101A1000FC910280F381E02D41E050E0BE016F5F58
:101A20007F4F09950F90DF91CF9108952F923F92AC
:101A30004F925F926F927F928F929F92AF92BF92DE
:101A4000CF92DF92EF92FF920F931F93CF93DF938A
:101A500000D01F92CDB7DEB7FC018581811118C07F
:101A60008FEF9FEF0F900F900F90DF91CF911F910D
:101A70000F91FF90EF90DF90CF90BF90AF909F902D
:101A80008F907F906F905F904F903F902F90089530
:101A9000848180FFE5CF4389548965897689828571
:101AA0009385A485B585312C212C481759076A07E1
:101AB0007B0719F022242394312C6F012101CE01E0
:101AC00001963C01DF011696BB83AA8341145104A1
:101AD00009F4C5C0F60142855385648575854A01C0
:101AE000F1E09F22D6015B968D919C915C978A01D3
:101AF0009B01E9E03695279517950795EA95D1F76B
:101B00001596EC91E230E9F5FC01628D738D848DC0
:101B1000958D600F711F821F931FA12C22E0B22EA2
:101B2000A818B9084A145B0408F45201F60124818C
:101B300026FD04C0A114F2E0BF0671F4009100017B
:101B4000109101012091020130910301061717073E
:101B50002807390709F05EC040E00E940705882386
:101B600009F47ECFC401815E9B4FD3019C012A0DF5
:101B70003B1DFC012E173F0709F46CC041914D93AA
:101B8000F9CFDC011496BC90BA94B0228114910470
:101B900079F4B1100DC0452B462B472B69F5F601A2
:101BA0008789908DA18DB28D86839783A087B18719
:101BB000D6015B96ED91FC915C9716966D917D91A7
:101BC0008D919C9119976250710981099109258520
:101BD00004C0660F771F881F991F2A95D2F70685C4
:101BE000178520893189600F711F821F931F6B0D2C
:101BF000711D811D911D91CFD60116964D915D915C
:101C00006D917C9119972A813B810E943507811142
:101C1000CFCF26CF730185019401AB01BC01809128
:101C20001D0490911E040E94A803882309F418CF74
:101C30006A0C7B1CF60182859385A485B5858A0D87
:101C40009B1DA11DB11D82879387A487B5874A1864
:101C50005B083CCF281B390B620E731EEBCF2A9416
:101C6000232809F0FDCE898190E0FCCEFC01818D16
:101C7000928D009711F00C94160D8FEF9FEF089541
:101C80000F931F930E94F00260931507709316073D
:101C900080931707909318078DE097E00E94360E07
:101CA00097FF1DC00E94F0020091150710911607C2
:101CB0002091170730911807601B710B820B930B53
:101CC000009111071091120720911307309114070A
:101CD0006017710782079307F8F28FEF9FEF1F914C
:101CE0000F9108950F931F93CF93DF93EC01898D8C
:101CF0009A8D10E000E0009799F00E94160D8C017B
:101D00000F3F100769F0898D9A8DFC01428553853C
:101D10006485758541505109610971090E947508F2
:101D2000C801DF91CF911F910F9108958F929F92DB
:101D3000AF92BF92CF92DF92EF92FF920F931F93D9
:101D4000CF93DF9300D000D0CDB7DEB7FC01858103
:101D5000813091F080E00F900F900F900F90DF9105
:101D6000CF911F910F91FF90EF90DF90CF90BF9098
:101D7000AF909F908F900895848181FFEBCF8389EE
:101D80009489A589B689892B8A2B8B2B09F45FC08E
:101D90007F0140E050E0BA01CF010E94750888231E
:101DA000C9F2F701C38CD48C8788908CA18CB28C3B
:101DB00082E090E0A0E0B0E0F60180839183A2830E
:101DC000B3839E012F5F3F4FB501A401C6010E945E
:101DD0003507882309F4BECF00E010E09801B50173
:101DE000A401C6010E949306882309F4B3CF898019
:101DF0009A80AB80BC80F6018789803119F188EF29
:101E00009FEFAFEFBFE088169906AA06BB06C8F29F
:101E1000F701178A108E118E128E138A148A158A72
:101E2000168A84818068848361E0C7010E94090A60
:101E3000882309F48FCF40E050E0BA01C7010E9427
:101E4000750889CF88EF9FEFA0E0B0E0DCCF81E09C
:101E500082CFCF92DF92EF92FF921F93CF93DF93C7
:101E6000EC0180E2689FF0011124E15EFB4F938555
:101E7000917161F0842F827449F080E0DF91CF91FD
:101E80001F91FF90EF90DF90CF900895142F6A8BF1
:101E90008091000190910101A0910201B091030194
:101EA0008E879F87A88BB98BC488D588F12CE12CAD
:101EB0007601DD24CC24CF8AD88EE98EFA8E828DED
:101EC000938DB0E0A0E0AC01BD014C295D296E29E5
:101ED0007F294F8B588F698F7A8F83858871B1F4F2
:101EE000848D958DA68DB78D8B8B9C8BAD8BBE8B8A
:101EF00081E08D831F701C831E821F8218861986C5
:101F00001A861B861C861D8681E0B8CF803109F0B9
:101F1000B4CF9E012D5E3F4F8B8D9C8D0E94B607E6
:101F2000882309F4AACF84E0E4CF80910707909139
:101F30000807009711F00C94EC1F60E070E0CB01F3
:101F40000895CF93DF93EC018091070790910807E4
:101F50000097E9F06881798161157105B1F04091D0
:101F6000090750910A072C813D814217530768F0F9
:101F70000E941D238C819D8190930C0780930B07F9
:101F80001D821C82DF91CF9108950E94C12188811A
:101F9000998190930807809307078A819B8190938A
:101FA0000A07809309078C819D8190930C07809389
:101FB0000B07198218821B821A82E2CFCF93DF931C
:101FC000EC0188819981009711F00E94C12119824A
:101FD00018821D821C821B821A82DF91CF91089584
:101FE000FC0180819181009711F00C94C12108952A
:101FF000FB0101900020E9F73197AF01461B570B19
:10200000DC01ED91FC910280F381E02D0994BC018B
:102010008FE196E00C94F80F8F929F92AF92BF924F
:10202000CF92DF92EF92FF920F931F93CF93DF93A4
:10203000CDB7DEB7A1970FB6F894DEBF0FBECDBF08
:102040006C01990FEE08FF08F7FE43C06DE28FE1C7
:1020500096E00E947B018C0122273327A9012C19CD
:102060003D094E095F0919A2CE0181967C019AE0D3
:10207000892E912CA12CB12CCA01B901A501940182
:102080000E94C620605DF70162937F012115310532
:102090004105510589F790E080E0309729F0BF01B4
:1020A0008FE196E00E94F80F800F911FA1960FB666
:1020B000F894DEBF0FBECDBFDF91CF911F910F917E
:1020C000FF90EF90DF90CF90BF90AF909F908F9058
:1020D0000895A701960119A28E010F5D1F4F8AE096
:1020E000C82ED12CE12CF12CCA01B901A70196010F
:1020F0000E94C620605DF80162938F0121153105B1
:102100004105510589F790E080E0309779F2BF01F1
:102110008FE196E00E94F80FC9CF6EE371E00C9456
:10212000F80FCF93DF93BC018FE196E00E94F80F88
:10213000EC018FE196E00E948D108C0F9D1FDF91C6
:10214000CF9108950F931F93CF93DF93EC010E94DB
:10215000CD008C01CE010E948D10800F911FDF9168
:10216000CF911F910F9108950F931F93CF93DF93FA
:10217000EC0188819981009759F02A813B812617CB
:10218000370730F081E0DF91CF911F910F910895D3
:102190008B016F5F7F4F0E944A22009759F099830D
:1021A00088831B830A832C813D81232B59F7FC01F3
:1021B0001082E8CF80E0E7CFEF92FF920F931F935A
:1021C000CF93DF936115710541F480E0DF91CF91EA
:1021D0001F910F91FF90EF90089541155105B1F0B7
:1021E0007B01EC010C811D81040F151FB8010E94B9
:1021F000B410882351F3288139818C819D81B701E6
:10220000820F931F0E941D231D830C8381E0DECF6C
:10221000CF93DF93EC01FB0101900020E9F73197A8
:10222000AF01461B570B0E94DC10811103C0CE0189
:102230000E94DE0FCE01DF91CF910895CF93DF93FF
:10224000EC01FB0144815581608171810E94DC10A9
:10225000811103C0CE010E94DE0FCE01DF91CF912C
:102260000895EF92FF920F931F93CF93DF93EC01AA
:102270007B018A01BA010E94B41081110BC0CE010A
:102280000E94DE0FCE01DF91CF911F910F91FF9041
:10229000EF9008951D830C83B701888199810E9476
:1022A0001D23F0CFFB0101900020E9F73197AF012A
:1022B000461B570B0C9431110F931F93CF93DF9351
:1022C000CDB7DEB762970FB6F894DEBF0FBECDBFB5
:1022D0008C01CB01F80111821082138212821582C7
:1022E00014824AE0BE016F5F7F4F0E941320BE013F
:1022F0006F5F7F4FC8010E94521162960FB6F8942B
:10230000DEBF0FBECDBFDF91CF911F910F9108951A
:10231000CF93DF93EC01FB018617970749F06081AB
:1023200071816115710541F0448155810E9431111F
:10233000CE01DF91CF9108950E94DE0FF9CFFC010D
:102340001182108213821282158214820C948811D9
:10235000FC01118210821382128215821482FB0109
:1023600001900020E9F73197AF01461B570B0C9401
:102370003111EF92FF920F931F93CF93DF9300D011
:10238000CDB7DEB78C01E62E60E471E00E94A811A3
:102390000E94400E0E2C000CFF0897FD10C08E15F9
:1023A0009F0569F089831A8241E050E0BE016F5FAA
:1023B0007F4FC8010E94DC100E94400EEECFC80182
:1023C0000F900F90DF91CF911F910F91FF90EF90A1
:1023D00008953F924F925F926F927F928F929F9259
:1023E000AF92BF92CF92DF92EF92FF920F931F9323
:1023F000CF93DF93CDB7DEB72B970FB6F894DEBF40
:102400000FBECDBF7C01FE013196CE010C966F014F
:1024100030E231938E179F07E1F7DA0130E087E071
:102420009D91B92E992309F43CC09E32F1F48A3073
:10243000C9F480E02B960FB6F894DEBF0FBECDBF77
:10244000DF91CF911F910F91FF90EF90DF90CF9090
:10245000BF90AF909F908F907F906F905F904F90C4
:102460003F90089538E08AE0DBCFE8E6F0E0449161
:10247000442321F031969413FACFDBCF8317C8F2AF
:102480004FED490F4E35A8F64FE9490F4A3118F480
:1024900040EEB42EB90EF601E30FF11DB0823F5F9E
:1024A000BFCF8981803229F2322E8B01DB015B960E
:1024B0008D919C915C97F701948F838F16961D9256
:1024C0001D921D921C921997FB0112861386148689
:1024D0001586F80182859385A485B585438954893D
:1024E0006589768984179507A607B70708F04DC058
:1024F00025E0B695A795979587952A95D1F7F82F5A
:10250000FF70AF2ED80115968C91823008F491CFD0
:10251000C8010E94160D97FD8CCFF8018285938526
:10252000A485B5854F96A11DB11D82879387A48789
:10253000B587F0E2AF9EB0011124615E7B4F61155B
:10254000710509F476CFDB018C91882341F0853E3B
:1025500009F058C0BB2029F0BB24B394BACFB11006
:102560000EC0F701A28A8091000190910101A09113
:102570000201B091030186879787A08BB18BDB01A5
:102580008C918111E9CFBB24B394832D8271823168
:1025900009F04FCFBB2009F443C0C7010E94510589
:1025A000009709F446CF20E2FC0111922A95E9F741
:1025B0002BE0F601DC0101900D922A95E1F721E272
:1025C00038E2DC0151963C932E93509740E058E05E
:1025D0001F965C934E931E9753963C932E9352975F
:1025E00059963C932E93589757965C934E935697D3
:1025F00081E00E94DC04882309F41BCF432DF701FE
:1026000062890AC04BE050E0C6010E940723892B73
:1026100009F05FCF432D6A2DC7010E94290F0ACF11
:10262000F8018581823009F404CFC8010E940909AC
:10263000882309F4FECED8015B96ED91FC915C975E
:1026400016968D909D90AD90BC901997B2E08B1A24
:102650009108A108B108858504C0880C991CAA1CA2
:10266000BB1C8A95D2F786859785A089B189880E8B
:10267000991EAA1EBB1E848124013501480E511CDF
:10268000611C711C481459046A047B0409F1E1E0DF
:102690004E1A51086108710881E00E94DC04882309
:1026A00009F4C7CEEFE1F4E011928FE196E08E17C6
:1026B0009F07D1F740920001509201016092020100
:1026C000709203018091CE0381608093CE03DACFB4
:1026D000D8015B96ED91FC91258580E092E0A0E029
:1026E000B0E004C0880F991FAA1FBB1F2A95D2F71C
:1026F000F8014389548965897689840F951FA61F3F
:10270000B71F838B948BA58BB68BD70152961C92E7
:102710008FE194E048CFEF92FF920F931F93CF93F6
:10272000DF93EC017B018A011B821A8288EE93E021
:10273000A0E0B0E08C839D83AE83BF8380E391E013
:10274000998388838DE190E00E9425219A8F898F5B
:10275000009779F02DE1F701DC0101900D922A95A7
:10276000E1F74CE050E0B801CE010C960E94242322
:10277000188EDF91CF911F910F91FF90EF900895E8
:10278000CF92DF92FF920F931F93CF93DF93CDB73A
:10279000DEB7C755D1090FB6F894DEBF0FBECDBF67
:1027A0008C01F62E1C821B8284E2C82E81E0D82E7A
:1027B000DA82C9821E82CE0101960E942108BE01E2
:1027C0006F5F7F4FCE01CB960E945A0C19A218A2C0
:1027D000DF8ECE8E1BA221968FAD2197811122C054
:1027E000F8011382128288EE93E0A0E0B0E08483C7
:1027F0009583A683B78380E391E091838083128ED3
:10280000118E1486C801C95ADF4F0FB6F894DEBF87
:102810000FBECDBFDF91CF911F910F91FF90DF9041
:10282000CF9008952F2D41E451E0BE01655C7F4FAC
:10283000CE014E960E94E911882391F2CE01CB96EB
:102840000E94A10A8F2D8670863041F449A95AA9A9
:102850006BA97CA9CE014E960E947508BE01625EEE
:102860007F4FCE0101960E945A0C41E451E0BE0117
:102870006F5F7F4FC8010E948B13C4CF1F920F92CE
:102880000FB60F9211242F933F934F935F936F9343
:102890007F938F939F93AF93BF93EF93FF938FE1BA
:1028A00096E00E945901FF91EF91BF91AF919F91E6
:1028B0008F917F916F915F914F913F912F910F90E9
:1028C0000FBE0F901F9018951F920F920FB60F9288
:1028D00011242F938F939F93EF93FF93E0912F06F3
:1028E000F09130068081E0913506F091360682FD48
:1028F0001BC09081809138068F5F8F7320913906BD
:10290000821741F0E0913806F0E0E15EF94F958FD3
:1029100080933806FF91EF919F918F912F910F90A7
:102920000FBE0F901F9018958081F4CF1F920F92C9
:102930000FB60F9211242F933F938F939F93AF93D2
:10294000BF938091D4039091D503A091D603B09109
:10295000D7033091D30323E0230F2D3758F5019689
:10296000A11DB11D2093D3038093D4039093D5036D
:10297000A093D603B093D7038091D8039091D90345
:10298000A091DA03B091DB030196A11DB11D8093E4
:10299000D8039093D903A093DA03B093DB03BF91DC
:1029A000AF919F918F913F912F910F900FBE0F90FC
:1029B0001F90189526E8230F0296A11DB11DD2CFB6
:1029C000CF92DF92EF92FF92EFE1F6E01382128254
:1029D00088EEC82E83E0D82EE12CF12CC482D5825B
:1029E000E682F78282E191E09183808385EC90E03A
:1029F0009587848784EC90E09787868780EC90E0C9
:102A0000918B808B81EC90E0938B828B82EC90E0B9
:102A1000958B848B86EC90E0978B868B118E128E33
:102A2000138E148EECEBF6E080E580831182EEEBE2
:102A3000F6E0158216821186138682E090E0A0E00F
:102A4000B0E084879587A687B78713A215A614A63A
:102A500084E291E093A782A717A660E471E088E280
:102A600097E00E94A81160E471E08EE297E00E9476
:102A7000A81160E471E084E397E00E94A81160E48B
:102A800071E08AE397E00E94A811EDE0F7E013827D
:102A90001282C482D582E682F78280E391E091833C
:102AA0008083128E118E148660E471E087E097E0D7
:102AB000FF90EF90DF90CF900C94A811CF93DF930D
:102AC000CDB7DEB7C057D1090FB6F894DEBF0FBE41
:102AD000CDBF789484B5826084BD84B5816084BDA7
:102AE00085B5826085BD85B5816085BD80916E00AC
:102AF000816080936E0010928100809181008260DD
:102B00008093810080918100816080938100809119
:102B100080008160809380008091B1008460809308
:102B2000B1008091B00081608093B00080917A0004
:102B3000846080937A0080917A00826080937A002A
:102B400080917A00816080937A0080917A00806819
:102B500080937A001092C100E0912F06F091300628
:102B600082E08083E0912B06F0912C061082E091A8
:102B70002D06F0912E068FEC808310923706E0919F
:102B80003306F091340686E08083E0913106F091BF
:102B90003206808180618083E0913106F0913206B7
:102BA000808188608083E0913106F09132068081D7
:102BB00080688083E0913106F091320680818F7DBC
:102BC000808360E088E00E94680260E089E00E9403
:102BD000680260E085E00E94680260E084E00E9494
:102BE000680260E083E00E94680260E082E00E9488
:102BF000680261E087E00E94680261E086E00E946E
:102C0000680288E00E94110290931C0480931B04C8
:102C100089E00E94110290931A048093190482E0C3
:102C20000E941102909318048093170483E00E947D
:102C30001102909316048093150484E00E941102FF
:102C4000909314048093130485E00E9411029093E2
:102C500012048093110460E471E087E097E00E9421
:102C600052118CE491E00E9491108091ED0688232E
:102C700021F088EE96E00E94A10A1092C9061092F7
:102C8000C7061092C4061092C3068AE08093C2065B
:102C90000E94F0028B0161E08091C2060E946802EE
:102CA00061E08091C2060E943A02FFB6F8948091DA
:102CB000DC03811127C0E8ECF0E08491E4EBF0E064
:102CC0009491E82FF0E0EE0FFF1FE056FF4FA59123
:102CD000B491EC91E92321F461E08AE00E943A0288
:102CE00061E08AE00E9468028CB580618CBD8CB581
:102CF00080648CBD61E08DE00E94680261E08BE041
:102D00000E9468028091DC038F5F8093DC03FFBE2A
:102D100082E58093BC061092BD068091BC0690911E
:102D2000BD060E943203EAE0FE2E8FEF0E940D03E3
:102D3000FA94F110FACF8EEB96E00E94350320E072
:102D400030E0A90160E08EEB96E00E944B03F82E84
:102D50008093C80681E0F81699F00E94F002601B8B
:102D6000710B613D774058F381E08093C3068EEB91
:102D700096E00E9402038BE691E00E949110FFCF43
:102D80002AEA31E040E050E068E08EEB96E00E94F5
:102D90004B0382FF2AC0F092C9068091C906C12C5C
:102DA000D12CE12C60E4F62E823019F0C12CD12C0C
:102DB000760120E030E0A90167E38EEB96E00E9407
:102DC0004B03A701960169E28EEB96E00E944B034C
:102DD0008093C8068823D1F00E94F002601B710B1B
:102DE000613D774030F388E0C0CF74E0F72E0E9459
:102DF00014038093C806FA94F110F9CF8A3A11F0BF
:102E000082E0B3CF82E08093C906C7CF8091C90624
:102E10008230D1F420E030E0A9016AE38EEB96E045
:102E20000E944B03882311F086E09FCF0E94140379
:102E3000807C803C19F483E08093C9060E941403CF
:102E40000E9414030E9414038EEB96E00E9402037A
:102E500080E58093BC061092BD0681E00E946A0561
:102E60008823F9F088EE96E00E942108882309F46F
:102E700082CF80E691E00E94911061E0CE01019640
:102E80000E94C013CE0101960E949500E091260792
:102E9000F0912707309761F482E891E00E94911049
:102EA0004EC180E00E946A05882309F464CFDACF1E
:102EB0008581882389F386E791E00E94911010E0D4
:102EC00000E08DE097E00E94B30C892B09F46EC0FE
:102ED0008DE097E00E94360E8C3291F50E94950F9E
:102EE0006B01F801EE0FFF1FED5FFB4F71836083F5
:102EF00060E471E087E097E00E945211B601CE01D4
:102F00004E960E945C11BE01625E7F4FCE0101961B
:102F10000E949F1169E873E0CE0101960E9408119A
:102F2000BC018FE196E00E94CD00CE0101960E9487
:102F3000F00FCE014E960E94F00F0F5F1F4FC1CFD2
:102F40008A3009F063C00E94950F6B01000F111FBA
:102F5000F801ED5FFB4F7183608360E471E087E00F
:102F600097E00E945211B601CE014E960E945C116C
:102F7000BE01625E7F4FCE0101960E949F1169E8FB
:102F800073E0CE0101960E940811BC018FE196E02A
:102F90000E94CD00CE0101960E94F00FCE014E9608
:102FA0000E94F00F87E892E00E949110F12CE12C32
:102FB00010E000E036E0D32E8DE097E00E94B30CE5
:102FC000892B09F4AAC060E471E087E097E00E94D1
:102FD00052110115110531F56CE2CE0101960E94E6
:102FE000B911CE0101960E94A10FCE0101960E9457
:102FF000F00F67E077E08FE196E00E94CD0087E870
:1030000092E00E94071001E010E0D6CF89831A8277
:1030100041E050E0BE016F5F7F4F87E097E00E9484
:10302000DC104FCF0130110529F56CE2CE0101967D
:103030000E94B911CE0101960E94A10FCE01019606
:103040000E94F00FDE9C8001DF9C100D1124085DB2
:10305000184F67E077E0C8010E948811B8018FE13E
:1030600096E00E94CD0087E892E00E94071002E0FF
:1030700010E0A2CF0230110501F56CE2CE010196FD
:103080000E94B911CE0101960E94A10FCE010196B6
:103090000E94F00F0E94950FF701EE0FFF1FED50F9
:1030A000FC4F71836083CB010E940C1087E892E093
:1030B0000E94071003E010E07FCF0330110509F0F4
:1030C0007BCF60E2CE0101960E94B911CE0101963C
:1030D0000E94A10FCE0101960E94F00F6AE0CE017E
:1030E00001960E94B911CE0101960E94F00F0E9434
:1030F000950FF701EE0FFF1FE550FC4F71836083C2
:10310000CB010E940C1087E892E00E949110FFEF23
:10311000EF1AFF0A10E000E04FCF80912607909150
:103120002707009761F00E94A10A809126079091DD
:1031300027070E94C121109227071092260785E9D0
:1031400091E00E94911080911104909112040197D6
:1031500011F58091E7039091E803892BE1F48091C8
:103160000304909104040196909304048093030453
:1031700080910F0490911004059690931004809311
:103180000F040E940C1081EA91E00E9407108FE169
:1031900096E00E948D1080911104909112049093FA
:1031A000E8038093E70385E00E94110290931204E4
:1031B000809311048091130490911404019711F5E8
:1031C0008091E5039091E603892BE1F48091050459
:1031D00090910604019690930604809305048091D3
:1031E0000F04909110040A969093100480930F049A
:1031F0000E940C1084EB91E00E9407108FE196E092
:103200000E948D1080911304909114049093E60312
:103210008093E50384E00E9411029093140480934C
:1032200013048091150490911604019711F5809173
:10323000E3039091E403892BE1F4809107049091DA
:1032400008040196909308048093070480910F046A
:103250009091100444969093100480930F040E9460
:103260000C1084EB91E00E9407108FE196E00E9421
:103270008D1080911504909116049093E40380932F
:10328000E30383E00E9411029093160480931504D7
:103290008091170490911804019711F58091E10332
:1032A0009091E203892BE1F48091090490910A0442
:1032B000019690930A048093090480910F049091E1
:1032C0001004C2969093100480930F040E940C1077
:1032D00084EB91E00E9407108FE196E00E948D1030
:1032E00080911704909118049093E2038093E10376
:1032F00082E00E9411029093180480931704809139
:10330000190490911A04019719F58091DF039091A7
:10331000E003892BE9F480910B0490910C04019651
:1033200090930C0480930B0480910F0490911004EF
:103330008C599F4F9093100480930F040E940C109F
:1033400084EB91E00E9407108FE196E00E948D10BF
:103350008091190490911A049093E0038093DF0305
:1033600089E00E94110290931A048093190400913D
:103370001B0410911C040115110509F09FC18091D7
:10338000DD039091DE03019709F098C188EC91E08C
:103390000E9407108FE196E00E948D1060E273E0BA
:1033A00080E090E00E94BE028AEE91E00E94071049
:1033B0008FE196E00E948D1086EF91E00E94071049
:1033C0008FE196E00E948D108FEF91E00E94071030
:1033D0008FE196E00E948D108AE092E00E94071033
:1033E0008FE196E00E948D1085E192E00E94071027
:1033F0008FE196E00E948D106EE172E0CE010196A1
:103400000E94A811F12CE12C8091110490911204DA
:10341000019779F58091E7039091E803892B49F5AD
:103420008091F3039091F403181619060CF052C121
:103430002091FB033091FC0301979093F403809358
:10344000F30380910D0490910E04820F931F9093CB
:103450000E0480930D0487E492E00E94071080918F
:103460000D0490910E040E940C108FE196E00E94D2
:103470008D1080911104909112049093E803809331
:10348000E70385E00E9411029093120480931104D7
:103490008091130490911404019779F58091E503CC
:1034A0009091E603892B49F58091F5039091F603FD
:1034B000181619060CF016C12091FD033091FE0379
:1034C00001979093F6038093F50380910D049091FA
:1034D0000E04820F931F90930E0480930D0487E4D3
:1034E00092E00E94071080910D0490910E040E94BA
:1034F0000C108FE196E00E948D1080911304909142
:1035000014049093E6038093E50384E00E94110283
:1035100090931404809313048091150490911604E1
:10352000019779F58091E3039091E403892B49F5A4
:103530008091F7039091F803181619060CF0DAC081
:103540002091FF033091000401979093F80380933A
:10355000F70380910D0490910E04820F931F9093B6
:103560000E0480930D0487E492E00E94071080917E
:103570000D0490910E040E940C108FE196E00E94C1
:103580008D1080911504909116049093E40380931C
:10359000E30383E00E9411029093160480931504C4
:1035A0008091170490911804019779F58091E103B7
:1035B0009091E203892B49F58091F9039091FA03E8
:1035C000181619060CF09EC02091010430910204D7
:1035D00001979093FA038093F90380910D049091E1
:1035E0000E04820F931F90930E0480930D0487E4C2
:1035F00092E00E94071080910D0490910E040E94A9
:103600000C108FE196E00E948D108091170490912C
:1036100018049093E2038093E10382E00E94110278
:103620009093180480931704E114F10409F072C018
:103630000130110509F06EC085E692E00E94071086
:103640008FE196E00E948D10CE0101960E94F00F4E
:1036500060E570E080E090E00E94BE020E94F0020F
:10366000611571058105910511F00E94E31F0E940B
:10367000941F24E030E040E050E00E945D20613083
:1036800071058105910509F04BC089E892E00E941F
:10369000911080910F04909110040E940C108BEBFC
:1036A00092E00E9407101092100410920F041092E2
:1036B0000E0410920D0461E087E0B6C31093DE03A0
:1036C0000093DD0388E00E94110290931C04809314
:1036D0001B0439CDBE016F5F7F4F8FE196E00E94E2
:1036E000A210C7CEBE016F5F7F4F8FE196E00E94B0
:1036F000A21003CFBE016F5F7F4F8FE196E00E9463
:10370000A2103FCFBE016F5F7F4F8FE196E00E9416
:10371000A2107BCF88E00E94110287017C0174CE49
:1037200020910F043091100480910D0490910E04AB
:10373000821793070CF093C188ED92E00E949110DC
:1037400020910F043091100480910D0490910E048B
:10375000281B390B89E093E037FD00C1C90164E6FD
:1037600070E00E94F7208B017093F2036093F103E5
:103770004CE94603F001479FF00D1124E20FF31FBF
:10378000CF0162E370E00E94F7207093F003609332
:10379000EF034EEC46039001479F300D1124E20FDA
:1037A000F31FCF0164E170E00E94F7207093EE03F5
:1037B0006093ED034CEE46039001479F300D1124BA
:1037C0002E0F3F1FC9016AE070E00E94F72070933E
:1037D000EC036093EB0346EF4603C001479F900D57
:1037E0001124820F931F65E070E00E94F720709310
:1037F000EA036093E90380910B0490910C04892BF8
:1038000071F00115110559F0C8010E940C1085E2F4
:1038100093E00E9407108FE196E00E948D10809146
:10382000090490910A04892B89F08091EF0390910B
:10383000F0031816190654F40E940C1083E393E069
:103840000E9407108FE196E00E948D10809107047E
:1038500090910804892B89F08091ED039091EE03FB
:103860001816190654F40E940C1080E493E00E948C
:1038700007108FE196E00E948D10809105049091D1
:103880000604892B89F08091EB039091EC031816C4
:10389000190654F40E940C108DE493E00E94071066
:1038A0008FE196E00E948D108091030490910404B2
:1038B000892B89F08091E9039091EA031816190683
:1038C00054F40E940C108AE593E00E9407108FE1E7
:1038D00096E00E948D1080910B0490910C04892B2E
:1038E00039F08091F1039091F20318161906A4F1B2
:1038F0008091090490910A04892B39F08091EF039B
:103900009091F003181619063CF1809107049091EC
:103910000804892B39F08091ED039091EE0318167D
:103920001906D4F08091050490910604892B39F092
:103930008091EB039091EC03181619066CF08091BE
:10394000030490910404892B79F08091E90390910C
:10395000EA031816190644F486E693E00E9407105D
:103960008FE196E00E948D101EAE1DAE84E291E0C4
:103970009CAF8BAF21961FAE219719A218A29F8FE3
:103980008E8F1BA2812C712C5E018BE3A80EB11CC3
:1039900088EEC82E86E0D82EFA2CEB2C882D972D99
:1039A000FC01EF5BFE4F20812F3209F40196DC0110
:1039B000AF5BBE4FFE01E85AFF4F30E020E08F01C1
:1039C0004D914F3249F0442339F001962F5F3F4F1C
:1039D00041932C303105A1F7200F311FF9011082DE
:1039E000FC01EF5BFE4F20812F3209F40196882EF7
:1039F000792E8F5B9E4FFC01808181113CC01C821F
:103A00001B8284E291E09A8389831E8222E0A801CE
:103A1000B601CE0101960E94E9118823A9F0CE01DA
:103A200001960E94960E882379F0CE0101960E949D
:103A30005105009749F025EEFC0120831E8281E0AC
:103A40000E94DC0481110EC0F8EECF16F6E0DF060E
:103A500041F10DC088E993E00E949110DBC18EEA2C
:103A600093E015CE98EEC91696E0D906D1F0C601BE
:103A70000E94A10A16C0F50185818111E5CF21E0E0
:103A8000A801B601C5010E94E911982E88EEC8165A
:103A900086E0D80609F4DCC1C6010E94A10A911093
:103AA000DDC167E1CE0101960E94C013CE010196EF
:103AB0000E949500E0912607F0912707309751F278
:103AC0008581882339F260910B0470910C04CE013A
:103AD00085599F4F0E945C116091090470910A04FE
:103AE000CE018B599F4F0E945C1160910704709129
:103AF0000804C8010E945C116091050470910604DD
:103B00008F2D9E2D0E945C1160910304709104041E
:103B1000CE0101960E945C11BE016F5F7F4FCE0106
:103B20004E960E949F1169E873E0CE014E960E9466
:103B300008116F2D7E2D0E941E1169E873E00E940E
:103B40000811B8010E941E1169E873E00E94081173
:103B5000BE016B597F4F0E941E1169E873E00E94FD
:103B60000811BE0165597F4F0E941E11BC018DE0F6
:103B700097E00E94A210CE014E960E94F00FCE0157
:103B800001960E94F00F8F2D9E2D0E94F00FC8010C
:103B90000E94F00FCE018B599F4F0E94F00FCE0173
:103BA00085599F4F0E94F00F6091FB037091FC03B9
:103BB000C8010E945C116091F3037091F4038F2D92
:103BC0009E2D0E945C1168E277E0CE014E960E9425
:103BD0009F1168E873E0CE0101960E94A811BE0112
:103BE000625E7F4FCE0101960E941E1169E873E06C
:103BF0000E9408116F2D7E2D0E941E1169E873E04E
:103C00000E940811B8010E941E116BE873E00E9427
:103C10000811BC018DE097E00E94A210CE01019630
:103C20000E94F00FCE014E960E94F00F8F2D9E2D18
:103C30000E94F00FC8010E94F00F6091FD03709187
:103C4000FE03C8010E945C116091F5037091F603B8
:103C50008F2D9E2D0E945C116EE277E0CE014E9674
:103C60000E949F116FE873E0CE0101960E94A81197
:103C7000BE01625E7F4FCE0101960E941E1169E86F
:103C800073E00E9408116F2D7E2D0E941E1169E8BD
:103C900073E00E940811B8010E941E116BE873E0E6
:103CA0000E940811BC018DE097E00E94A210CE0195
:103CB00001960E94F00FCE014E960E94F00F8F2DBC
:103CC0009E2D0E94F00FC8010E94F00F6091FF032B
:103CD00070910004C8010E945C116091F70370911B
:103CE000F8038F2D9E2D0E945C1164E377E0CE01D6
:103CF0004E960E949F1162E973E0CE0101960E94E8
:103D0000A811BE01625E7F4FCE0101960E941E1176
:103D100069E873E00E9408116F2D7E2D0E941E112C
:103D200069E873E00E940811B8010E941E116BE857
:103D300073E00E940811BC018DE097E00E94A21080
:103D4000CE0101960E94F00FCE014E960E94F00F18
:103D50008F2D9E2D0E94F00FC8010E94F00F6091E0
:103D6000010470910204C8010E945C116091F90382
:103D70007091FA038F2D9E2D0E945C116AE377E00B
:103D8000CE014E960E949F1165E973E0CE01019627
:103D90000E94A811BE01625E7F4FCE0101960E9473
:103DA0001E1169E873E00E9408116F2D7E2D0E949C
:103DB0001E1169E873E00E940811B8010E941E11EB
:103DC0006BE873E00E940811BC018DE097E00E944F
:103DD000A210CE0101960E94F00FCE014E960E94D5
:103DE000F00F8F2D9E2D0E94F00FC8010E94F00F42
:103DF0008091260790912707009761F00E94A10A01
:103E000080912607909127070E94C12110922707D1
:103E1000109226071092100410920F0410920E04B4
:103E200010920D0461E086E00E943A0260E273E0C5
:103E300080E090E00E94BE0200E010E00115110554
:103E4000E9F30E9445018823C9F30E940000F6CFE0
:103E5000992009F426CEFE017E966F019C2D8D2DB2
:103E60006501A92EB82E9ACD87E097E00E94F00F49
:103E70008AE397E00E94F00F84E397E00E94F00F3E
:103E80008EE297E00E94F00F88E297E00C94F00F2A
:103E90008F929F92AF92BF92CF92DF92EF92FF925A
:103EA000CF93DF93EC01688179818A819B816115D1
:103EB00071058105910521F464E279ED8BE597E0C8
:103EC0002DE133EF41E050E00E945D2049015A01AD
:103ED0009B01AC01A7EAB1E40E947C206B017C014C
:103EE000ACEEB4EFA50194010E948A20C60ED71E45
:103EF000E81EF91EF7FE06C081E0C81AD108E108E5
:103F000080E8F80AC882D982EA82FB82C701B6013A
:103F10009F77DF91CF91FF90EF90DF90CF90BF9090
:103F2000AF909F908F9008958F929F92AF92BF9283
:103F3000CF92DF92EF92FF926091040170910501A0
:103F40008091060190910701611571058105910528
:103F500021F464E279ED8BE597E02DE133EF41E068
:103F600050E00E945D2049015A019B01AC01A7EA83
:103F7000B1E40E947C206B017C01ACEEB4EFA501A2
:103F800094010E948A20C60ED71EE81EF91EF7FE75
:103F900006C081E0C81AD108E10880E8F80AC0929A
:103FA0000401D0920501E0920601F0920701C701D9
:103FB000B6019F77FF90EF90DF90CF90BF90AF90CA
:103FC0009F908F90089560930401709305018093F2
:103FD00006019093070108951F93FC0199278827F4
:103FE000BC01E89411911032E9F3193010F01E3041
:103FF000C8F31B3251F01D3249F4689406C00E9488
:104000001E20610F711D811D911D119110531A30D9
:10401000B0F33EF490958095709561957F4F8F4FEA
:104020009F4F1F910895BB274A3031F4992322F402
:10403000BDE2909581959F4F0C943420592F482FC5
:10404000372F262F660F771F881F991F660F771F40
:10405000881F991F620F731F841F951F660F771F9C
:10406000881F991F0895BB27FB015527AA27880F92
:10407000991FAA1FA41710F0A41B83955051B9F7DC
:10408000A05DAA3308F0A95DA193009779F7B1115B
:10409000B1931192CB010C944D20DC01FC01672FF0
:1040A00071917723E1F7329704C07C916D9370830F
:1040B0006291AE17BF07C8F30895052E97FB1EF453
:1040C00000940E94742057FD07D00E94C62007FC70
:1040D00003D04EF40C947420509540953095219562
:1040E0003F4F4F4F5F4F0895909580957095619524
:1040F0007F4F8F4F9F4F08950E94E820A59F900DFE
:10410000B49F900DA49F800D911D11240895B7FFB9
:104110000C947C200E947C20821B930B08952F928C
:104120003F924F925F926F927F928F929F92AF9247
:10413000BF92CF92DF92EF92FF920F931F93CF9394
:10414000DF93CDB7DEB7CA1BDB0B0FB6F894DEBF2B
:104150000FBECDBF09942A88398848885F846E8451
:104160007D848C849B84AA84B984C884DF80EE809B
:10417000FD800C811B81AA81B981CE0FD11D0FB6A4
:10418000F894DEBF0FBECDBFED010895A1E21A2E57
:10419000AA1BBB1BFD010DC0AA1FBB1FEE1FFF1FEB
:1041A000A217B307E407F50720F0A21BB30BE40B3B
:1041B000F50B661F771F881F991F1A9469F7609582
:1041C0007095809590959B01AC01BD01CF0108953C
:1041D000A29FB001B39FC001A39F700D811D112448
:1041E000911DB29F700D811D1124911D089597FBA3
:1041F000072E16F4009407D077FD09D00E940B21FA
:1042000007FC05D03EF4909581959F4F08957095D9
:1042100061957F4F0895AA1BBB1B51E107C0AA1FE0
:10422000BB1FA617B70710F0A61BB70B881F991F57
:104230005A95A9F780959095BC01CD010895EE0F90
:10424000FF1F0590F491E02D09940F931F93CF93D6
:10425000DF938230910510F482E090E0E091420714
:10426000F091430730E020E0B0E0A0E0309799F40F
:104270002115310509F44AC0281B390B24303105BA
:10428000D8F58A819B816115710589F1FB019383C2
:104290008283FE0111C04081518102811381481740
:1042A0005907E0F04817590799F4109761F01296F2
:1042B0000C93129713961C933296CF01DF91CF91F6
:1042C0001F910F9108950093420710934307F4CF75
:1042D0002115310551F04217530738F0A901DB01D0
:1042E0009A01BD01DF01F801C1CFEF01F9CF909331
:1042F000430780934207CDCFFE01E20FF31F819366
:1043000091932250310939832883D7CF20914007D8
:1043100030914107232B41F420910A0130910B0188
:104320003093410720934007209108013091090103
:104330002115310541F42DB73EB740910C01509144
:104340000D01241B350BE0914007F0914107E21766
:10435000F307A0F42E1B3F0B2817390778F0AC01A8
:104360004E5F5F4F2417350748F04E0F5F1F509385
:10437000410740934007819391939FCFF0E0E0E0A5
:104380009CCFCF93DF930097E9F0FC013297138223
:104390001282A0914207B0914307ED0130E020E086
:1043A0001097A1F420813181820F931F2091400743
:1043B000309141072817390709F061C0F093410790
:1043C000E0934007DF91CF910895EA01CE17DF0710
:1043D000E8F54A815B819E0141155105B1F7E9017C
:1043E000FB83EA8349915991C40FD51FEC17FD0750
:1043F00061F4808191810296840F951FE901998370
:104400008883828193819B838A83F0E0E0E0129627
:104410008D919C9113970097B9F52D913C9111972F
:10442000CD010296820F931F2091400730914107E2
:104430002817390739F6309751F510924307109233
:104440004207B0934107A0934007BCCFD383C283F8
:1044500040815181840F951FC817D90761F44E5FC1
:104460005F4F88819981480F591F518340838A810A
:104470009B81938382832115310509F0B0CFF0939E
:104480004307E09342079ECFFD01DC01C0CF1382BA
:104490001282D7CFB0E0A0E0E0E5F2E20C949120E8
:1044A0008C01009751F4CB010E9425218C01C80199
:1044B000CDB7DEB7E0E10C94AD20FC01E60FF71FAD
:1044C0009C0122503109E217F30708F49DC0D9017D
:1044D000CD91DC911197C617D70798F0C530D1055B
:1044E00030F3CE0104978617970708F3C61BD70B46
:1044F0002297C193D1936D937C93CF010E94C121E8
:10450000D6CF5B01AC1ABD0A4C018C0E9D1EA0914A
:104510004207B0914307512C412CF12CE12C10970C
:1045200031F580914007909141078815990509F070
:104530005CC04616570608F058C08091080190915B
:104540000901009741F48DB79EB740910C0150913D
:104550000D01841B950BE817F90708F055C0F0937F
:104560004107E0934007F90171836083A0CF8D91EB
:104570009C91119712966C90129713967C901397BA
:10458000A815B90559F56C0142E0C40ED11CCA1436
:10459000DB0420F1AC014A195B09DA011296159788
:1045A00080F06282738251834083D9016D937C9342
:1045B000E114F10471F0D7011396FC93EE93129776
:1045C00076CF22968C0F9D1FF90191838083F30192
:1045D000EFCFF0934307E093420769CF481659069F
:1045E00008F42C017D01D3019ACFCB010E94252133
:1045F0007C01009749F0AE01B8010E941423C80164
:104600000E94C121870153CF10E000E050CFFB0191
:10461000DC0104C08D910190801921F4415050407B
:10462000C8F7881B990B0895FB01DC0102C00190BB
:104630000D9241505040D8F70895FB01DC010190E4
:104640000D920020E1F70895FB01DC01415050403C
:1046500048F001900D920020C9F701C01D92415011
:104660005040E0F7089510E0CAE6D0E004C0FE0133
:104670000E941F212196CB36D107C9F7F894FFCFAE
:10468000FFFFFFFF01000000000044078000000062
:1046900000007B01DB000801C801390117012B0173
:1046A00000000000490CDB00430ACC0000000000C1
:1046B000000DE30CD30CAA0CB30C360E720E0D0ACF
:1046C0000068697A6D65742E7478740053442063B1
:1046D000617264206F6B756E75796F722E2E2E006D
:1046E000696E697420646F6E652E00696E6974204E
:1046F0006661696C210068697A6D65742E747874DE
:104700003A006572726F72206F70656E696E672015
:1047100066696C650050617261204174696E697AE6
:104720000020544C207061726120617474696E695C
:104730007A2E200020544C207061726120617474C4
:10474000696E697A2E20200020506172612079758F
:104750006B6C656D652069736C656D692062697449
:104760006D69737469722E202000312E4B6F707545
:104770006B6C656D6500322E59696B616D6100333C
:104780002E4B7572756C616D6100342E43696C61DE
:104790006C616D6100362E42697469732000557A30
:1047A00067756E757A2062752068697A6D657469BF
:1047B0002073696D64696C696B20766572656D69DB
:1047C000796F72757A21002068697A6D65746C65FD
:1047D00072696E20746F706C616D20626564656CC7
:1047E00069203D20002048697A6D65742053656317
:1047F000696D2049736C656D69204269746D6973D8
:104800007469722E2E2E202000506172612073690F
:104810006B6973746920506172616E697A2074618A
:104820006D616D69206765726920696164652065E5
:1048300064696C69796F722E2E2E0020544C2070A2
:104840006172616E697A2069616465206564696C72
:104850006D69737469722E00506172612073696BA7
:1048600069736D617369206F6C6D6164692070613B
:10487000726120757374752069616465206564696F
:104880006C69796F722E2E2E004B6173616461200A
:1048900079657465726C69207061726120796F6BE3
:1048A0007475722E0020616465742031303020549C
:1048B0004C2000206164657420353020544C200069
:1048C000206164657420323020544C2000206164E3
:1048D000657420313020544C2000206164657420C0
:1048E0003520544C200073656B6C696E64652070D4
:1048F0006172616E697A2069616465206564696CC2
:104900006D69737469722E00312C0020544C003292
:104910002C00332C00342C00646F73796120657394
:1049200069746C656D6520686174617369005965AF
:1049300074657269204B61646172205061726120FC
:0C4940004174696C6D6164692E2E2E00BC
:107E0000112484B714BE81FFF0D085E080938100F7
:107E100082E08093C00088E18093C10086E0809377
:107E2000C20080E18093C4008EE0C9D0259A86E02C
:107E300020E33CEF91E0309385002093840096BBD3
:107E4000B09BFECF1D9AA8958150A9F7CC24DD24C4
:107E500088248394B5E0AB2EA1E19A2EF3E0BF2EE7
:107E6000A2D0813461F49FD0082FAFD0023811F036
:107E7000013811F484E001C083E08DD089C08234E0
:107E800011F484E103C0853419F485E0A6D080C0E4
:107E9000853579F488D0E82EFF2485D0082F10E0AE
:107EA000102F00270E291F29000F111F8ED06801E7
:107EB0006FC0863521F484E090D080E0DECF843638
:107EC00009F040C070D06FD0082F6DD080E0C81688
:107ED00080E7D80618F4F601B7BEE895C0E0D1E017
:107EE00062D089930C17E1F7F0E0CF16F0E7DF06D8
:107EF00018F0F601B7BEE89568D007B600FCFDCFD4
:107F0000A601A0E0B1E02C9130E011968C91119780
:107F100090E0982F8827822B932B1296FA010C0160
:107F200087BEE89511244E5F5F4FF1E0A038BF0790
:107F300051F7F601A7BEE89507B600FCFDCF97BE46
:107F4000E89526C08437B1F42ED02DD0F82E2BD052
:107F50003CD0F601EF2C8F010F5F1F4F84911BD097
:107F6000EA94F801C1F70894C11CD11CFA94CF0C13
:107F7000D11C0EC0853739F428D08EE10CD085E9AC
:107F80000AD08FE07ACF813511F488E018D01DD067
:107F900080E101D065CF982F8091C00085FFFCCF94
:107FA0009093C60008958091C00087FFFCCF809118
:107FB000C00084FD01C0A8958091C6000895E0E648
:107FC000F0E098E1908380830895EDDF803219F02E
:107FD00088E0F5DFFFCF84E1DECF1F93182FE3DFCA
:107FE0001150E9F7F2DF1F91089580E0E8DFEE27F6
:047FF000FF270994CA
:027FFE00040479
:00000001FF
